{
 "cells": [
  {
   "cell_type": "code",
   "execution_count": null,
   "metadata": {},
   "outputs": [],
   "source": [
   "############## URUCHOM TO NAJPIERW! ###################\n",
    "\n",
    "# zaimportuj wszystko i zdefiniuj funkcję wykonującą testy\n",
    "from importlib import reload\n",
    "from helper import run\n",
    "import ecc\n",
    "import helper\n",
    "import op\n",
    "import script\n",
    "import tx"
   ]
  },
  {
   "cell_type": "markdown",
   "metadata": {},
   "source": [
    "### Ćwiczenie 1\n",
    "\n",
    "Dopisz funkcję `op_checkmultisig` do pliku _op.py_.\n",
    "\n",
    "#### Wykonaj [ten test](/edit/r08/op.py): `op.py:OpTest:test_op_checkmultisig`"
   ]
  },
  {
   "cell_type": "code",
   "execution_count": null,
   "metadata": {},
   "outputs": [],
   "source": [
    "# Ćwiczenie 1\n",
    "\n",
    "reload(op)\n",
    "run(op.OpTest(\"test_op_checkmultisig\"))"
   ]
  },
  {
   "cell_type": "code",
   "execution_count": null,
   "metadata": {},
   "outputs": [],
   "source": [
    "from helper import encode_base58_checksum\n",
    "h160 = bytes.fromhex('74d691da1574e6b3c192ecfb52cc8984ee7b6c56')\n",
    "print(encode_base58_checksum(b'\\x05' + h160))"
   ]
  },
  {
   "cell_type": "markdown",
   "metadata": {},
   "source": [
    "### Ćwiczenie 2\n",
    "\n",
    "Napisz funkcję `h160_to_p2pkh_address`, która przekształca 20-bajtowy skrót hash160 na adres p2pkh.\n",
    "\n",
    "#### Wykonaj [ten test](/edit/r08/helper.HelperTest.py): `helper.HelperTest.py::test_p2pkh_address`"
   ]
  },
  {
   "cell_type": "code",
   "execution_count": null,
   "metadata": {},
   "outputs": [],
   "source": [
    "# Ćwiczenie 2\n",
    "\n",
    "reload(helper.HelperTest)\n",
    "run(helper.HelperTest.(\"test_p2pkh_address\"))"
   ]
  },
  {
   "cell_type": "markdown",
   "metadata": {},
   "source": [
    "### Ćwiczenie 3\n",
    "\n",
    "Napisz funkcję `h160_to_p2sh_address`, która przekształca 20-bajtowy skrót hash160 na adres p2sh.\n",
    "\n",
    "#### Wykonaj [ten test](/edit/r08/helper.HelperTest.py): `helper.HelperTest.py::test_p2sh_address`"
   ]
  },
  {
   "cell_type": "code",
   "execution_count": null,
   "metadata": {},
   "outputs": [],
   "source": [
    "# Ćwiczenie 3\n",
    "\n",
    "reload(helper.HelperTest)\n",
    "run(helper.HelperTest.(\"test_p2sh_address\"))"
   ]
  },
  {
   "cell_type": "code",
   "execution_count": null,
   "metadata": {},
   "outputs": [],
   "source": [
    "from helper import hash256\n",
    "modified_tx = bytes.fromhex('0100000001868278ed6ddfb6c1ed3ad5f8181eb0c7a385aa0836f01d5e4789e6bd304d87221a000000475221022626e955ea6ea6d98850c994f9107b036b1334f18ca8830bfff1295d21cfdb702103b287eaf122eea69030a0e9feed096bed8045c8b98bec453e1ffac7fbdbd4bb7152aeffffffff04d3b11400000000001976a914904a49878c0adfc3aa05de7afad2cc15f483a56a88ac7f400900000000001976a914418327e3f3dda4cf5b9089325a4b95abdfa0334088ac722c0c00000000001976a914ba35042cfe9fc66fd35ac2224eebdafd1028ad2788acdc4ace020000000017a91474d691da1574e6b3c192ecfb52cc8984ee7b6c56870000000001000000')\n",
    "s256 = hash256(modified_tx)\n",
    "z = int.from_bytes(s256, 'big')\n",
    "print(hex(z))"
   ]
  },
  {
   "cell_type": "code",
   "execution_count": null,
   "metadata": {},
   "outputs": [],
   "source": [
    "from ecc import S256Point, Signature\n",
    "from helper import hash256\n",
    "modified_tx = bytes.fromhex('0100000001868278ed6ddfb6c1ed3ad5f8181eb0c7a385aa0836f01d5e4789e6bd304d87221a000000475221022626e955ea6ea6d98850c994f9107b036b1334f18ca8830bfff1295d21cfdb702103b287eaf122eea69030a0e9feed096bed8045c8b98bec453e1ffac7fbdbd4bb7152aeffffffff04d3b11400000000001976a914904a49878c0adfc3aa05de7afad2cc15f483a56a88ac7f400900000000001976a914418327e3f3dda4cf5b9089325a4b95abdfa0334088ac722c0c00000000001976a914ba35042cfe9fc66fd35ac2224eebdafd1028ad2788acdc4ace020000000017a91474d691da1574e6b3c192ecfb52cc8984ee7b6c56870000000001000000')\n",
    "h256 = hash256(modified_tx)\n",
    "z = int.from_bytes(h256, 'big')\n",
    "sec = bytes.fromhex('022626e955ea6ea6d98850c994f9107b036b1334f18ca8830bfff1295d21cfdb70')\n",
    "der = bytes.fromhex('3045022100dc92655fe37036f47756db8102e0d7d5e28b3beb83a8fef4f5dc0559bddfb94e02205a36d4e4e6c7fcd16658c50783e00c341609977aed3ad00937bf4ee942a89937')\n",
    "point = S256Point.parse(sec)\n",
    "sig = Signature.parse(der)\n",
    "print(point.verify(z, sig))"
   ]
  },
  {
   "cell_type": "markdown",
   "metadata": {},
   "source": [
    "### Ćwiczenie 4\n",
    "\n",
    "Sprawdź poprawność drugiego podpisu z poprzedniej transakcji."
   ]
  },
  {
   "cell_type": "code",
   "execution_count": null,
   "metadata": {},
   "outputs": [],
   "source": [
    "# Ćwiczenie 4\n",
    "\n",
    "from io import BytesIO\n",
    "from ecc import S256Point, Signature\n",
    "from helper import encode_varint, hash256, int_to_little_endian\n",
    "from script import Script\n",
    "from tx import Tx, SIGHASH_ALL\n",
    "\n",
    "hex_tx = '0100000001868278ed6ddfb6c1ed3ad5f8181eb0c7a385aa0836f01d5e4789e6bd304d87221a000000db00483045022100dc92655fe37036f47756db8102e0d7d5e28b3beb83a8fef4f5dc0559bddfb94e02205a36d4e4e6c7fcd16658c50783e00c341609977aed3ad00937bf4ee942a8993701483045022100da6bee3c93766232079a01639d07fa869598749729ae323eab8eef53577d611b02207bef15429dcadce2121ea07f233115c6f09034c0be68db99980b9a6c5e75402201475221022626e955ea6ea6d98850c994f9107b036b1334f18ca8830bfff1295d21cfdb702103b287eaf122eea69030a0e9feed096bed8045c8b98bec453e1ffac7fbdbd4bb7152aeffffffff04d3b11400000000001976a914904a49878c0adfc3aa05de7afad2cc15f483a56a88ac7f400900000000001976a914418327e3f3dda4cf5b9089325a4b95abdfa0334088ac722c0c00000000001976a914ba35042cfe9fc66fd35ac2224eebdafd1028ad2788acdc4ace020000000017a91474d691da1574e6b3c192ecfb52cc8984ee7b6c568700000000'\n",
    "hex_sec = '03b287eaf122eea69030a0e9feed096bed8045c8b98bec453e1ffac7fbdbd4bb71'\n",
    "hex_der = '3045022100da6bee3c93766232079a01639d07fa869598749729ae323eab8eef53577d611b02207bef15429dcadce2121ea07f233115c6f09034c0be68db99980b9a6c5e754022'\n",
    "hex_redeem_script = '475221022626e955ea6ea6d98850c994f9107b036b1334f18ca8830bfff1295d21cfdb702103b287eaf122eea69030a0e9feed096bed8045c8b98bec453e1ffac7fbdbd4bb7152ae'\n",
    "sec = bytes.fromhex(hex_sec)\n",
    "der = bytes.fromhex(hex_der)\n",
    "redeem_script = Script.parse(BytesIO(bytes.fromhex(hex_redeem_script)))\n",
    "stream = BytesIO(bytes.fromhex(hex_tx))\n",
    "\n",
    "# zmodyfikuj transakcję\n",
    "# zacznij od wersji\n",
    "# dodaj liczbę wejść\n",
    "# zmodyfikuj pojedyncze TxIn tak, aby ScriptSig był skryptem RedeemScript\n",
    "# dodaj liczbę wyjść\n",
    "# dodaj serializację każdego wyjścia\n",
    "# dodaj czas blokady\n",
    "# dodaj SIGHASH_ALL\n",
    "# oblicz skrót hash256 wyniku\n",
    "# interpretuj go jako liczbę big-endian\n",
    "# przeanalizuj S256Point#\n",
    "# przeanalizuj podpis\n",
    "# sprawdź, czy punkt, z i podpis są poprawne"
   ]
  },
  {
   "cell_type": "markdown",
   "metadata": {},
   "source": [
    "### Ćwiczenie 5\n",
    "\n",
    "Zmodyfikuj metody `sig_hash` i `verify_input` tak, aby mogły weryfikować transakcje p2sh.\n",
    "\n",
    "#### Wykonaj [ten test](/edit/r08/tx.py): `tx.py:TxTest:test_verify_p2sh`"
   ]
  },
  {
   "cell_type": "code",
   "execution_count": null,
   "metadata": {},
   "outputs": [],
   "source": [
    "# Ćwiczenie 5\n",
    "\n",
    "reload(tx)\n",
    "run(tx.TxTest(\"test_verify_p2sh\"))"
   ]
  }
 ],
 "metadata": {},
 "nbformat": 4,
 "nbformat_minor": 2
}
